:020000040000fa
:080000000002040000000000f2
:020000040000fa
:100400000f8020000e7f22000e01880000000000f7
:100410000c000700e033200001002000110007005d
:10042000000020000000e000020032000000020096
:100430000000000094020200000000000040da000a
:100440000000fe004440a900000020000000e00081
:100450000300320000002000a00188004440a800f2
:100460000000060091018800800078000000eb0089
:1004700015003700e280400032a0b4009101ba00bc
:10048000e280400032a0b4009102ba00e280400055
:1004900032a0b4000002eb00472bde00f507b200eb
:1004a000602ce10004003a000059eb008301e900f0
:1004b000fdff3e00040037006128e100010032002a
:1004c0000082eb00040007001101ba000200e00006
:1004d000e8ff3a00000006003159ba008301e90044
:1004e0000c0032002159ba008301e90008003200f3
:1004f0000400e00003003a00e280400032a0b400b3
:10050000f5ff370011d9ba008301e900faff3a007c
:100510008100e800e180400032a0b4000000060045
:080520000040da000000fe00bb
:020000040000fa
:1000080090020000900200009002000090020000a0
:100018009002000090020000900200009002000090
:100028009002000090020000900200009002000080
:100038009002000090020000900200009002000070
:020000040000fa
:020000040000fa
:020000040002f8
:04aff800fdfa00005e
:020000040000fa
:020000040002f8
:04affc007f3f000093
:020000040000fa
:100528000400fa000000eb00001688000000eb0051
:100538002016880000282200103a88000080230036
:10054800203a880000022800200888000000eb00fc
:10055800000888000000eb00000f7800000037005a
:1005680000088000e30f4000010036001e0fe8007d
:100578001e007800100798001e009000e50f50003c
:100588002c0032001e009000e50f500011003c00c6
:100598001e009000e20f50001d0032001e00900067
:1005a800e20f500004003c001e009000e10f5000d4
:1005b80015003200eaff37001e009000e30f5000dc
:1005c800160032001e009000e40f500016003200a2
:1005d800e3ff37001e009000e70f50001b003200b9
:1005e8001e009000e70f5000150035001e00900017
:1005f800e80f5000180032001e009000e90f50006c
:1006080018003200d6ff3700c402a800d4ff370014
:10061800c422a800c402a900d1ff3700c442a80020
:10062800c422a900ceff3700c442a900c462a800b2
:10063800cbff3700c462a900c482a800c8ff3700f6
:10064800c4a2a800c482a900c5ff3700c4c2a8007c
:10065800c4a2a900c2ff3700c4e2a800c4c2a9000e
:10066800bfff3700c4e2a90010002000000f780087
:04067800bbff37008d
:020000040000fa
:04067c00000000007a
:00000001FF
